{"abi":[{"type":"function","name":"addOrderValue","inputs":[{"name":"sellOrder","type":"tuple","internalType":"struct AcuityDexIntrachain.SellOrder","components":[{"name":"sellAsset","type":"address","internalType":"address"},{"name":"buyAsset","type":"address","internalType":"address"},{"name":"price","type":"uint96","internalType":"uint96"},{"name":"value","type":"uint224","internalType":"uint224"},{"name":"timeout","type":"uint32","internalType":"uint32"},{"name":"prevHint","type":"bytes32[]","internalType":"bytes32[]"}]}],"outputs":[],"stateMutability":"nonpayable"},{"type":"function","name":"addOrderValueWithDeposit","inputs":[{"name":"sellOrder","type":"tuple","internalType":"struct AcuityDexIntrachain.SellOrder","components":[{"name":"sellAsset","type":"address","internalType":"address"},{"name":"buyAsset","type":"address","internalType":"address"},{"name":"price","type":"uint96","internalType":"uint96"},{"name":"value","type":"uint224","internalType":"uint224"},{"name":"timeout","type":"uint32","internalType":"uint32"},{"name":"prevHint","type":"bytes32[]","internalType":"bytes32[]"}]}],"outputs":[],"stateMutability":"payable"},{"type":"function","name":"buy","inputs":[{"name":"order","type":"tuple","internalType":"struct AcuityDexIntrachain.BuyOrder","components":[{"name":"orderType","type":"uint8","internalType":"enum AcuityDexIntrachain.BuyOrderType"},{"name":"route","type":"address[]","internalType":"address[]"},{"name":"sellValue","type":"uint224","internalType":"uint224"},{"name":"buyValue","type":"uint224","internalType":"uint224"}]}],"outputs":[],"stateMutability":"nonpayable"},{"type":"function","name":"buyAndWithdraw","inputs":[{"name":"order","type":"tuple","internalType":"struct AcuityDexIntrachain.BuyOrder","components":[{"name":"orderType","type":"uint8","internalType":"enum AcuityDexIntrachain.BuyOrderType"},{"name":"route","type":"address[]","internalType":"address[]"},{"name":"sellValue","type":"uint224","internalType":"uint224"},{"name":"buyValue","type":"uint224","internalType":"uint224"}]},{"name":"to","type":"address","internalType":"address"}],"outputs":[],"stateMutability":"nonpayable"},{"type":"function","name":"buyWithDeposit","inputs":[{"name":"order","type":"tuple","internalType":"struct AcuityDexIntrachain.BuyOrder","components":[{"name":"orderType","type":"uint8","internalType":"enum AcuityDexIntrachain.BuyOrderType"},{"name":"route","type":"address[]","internalType":"address[]"},{"name":"sellValue","type":"uint224","internalType":"uint224"},{"name":"buyValue","type":"uint224","internalType":"uint224"}]}],"outputs":[],"stateMutability":"payable"},{"type":"function","name":"buyWithDepositAndWithdraw","inputs":[{"name":"order","type":"tuple","internalType":"struct AcuityDexIntrachain.BuyOrder","components":[{"name":"orderType","type":"uint8","internalType":"enum AcuityDexIntrachain.BuyOrderType"},{"name":"route","type":"address[]","internalType":"address[]"},{"name":"sellValue","type":"uint224","internalType":"uint224"},{"name":"buyValue","type":"uint224","internalType":"uint224"}]},{"name":"to","type":"address","internalType":"address"}],"outputs":[],"stateMutability":"payable"},{"type":"function","name":"deposit","inputs":[],"outputs":[],"stateMutability":"payable"},{"type":"function","name":"depositERC20","inputs":[{"name":"asset","type":"address","internalType":"address"},{"name":"value","type":"uint256","internalType":"uint256"}],"outputs":[],"stateMutability":"nonpayable"},{"type":"function","name":"getBalance","inputs":[{"name":"asset","type":"address","internalType":"address"},{"name":"account","type":"address","internalType":"address"}],"outputs":[{"name":"value","type":"uint256","internalType":"uint256"}],"stateMutability":"view"},{"type":"function","name":"getOrderBook","inputs":[{"name":"sellAsset","type":"address","internalType":"address"},{"name":"buyAsset","type":"address","internalType":"address"},{"name":"maxOrders","type":"uint256","internalType":"uint256"}],"outputs":[{"name":"orderBook","type":"tuple[]","internalType":"struct AcuityDexIntrachain.Order[]","components":[{"name":"account","type":"address","internalType":"address"},{"name":"price","type":"uint256","internalType":"uint256"},{"name":"value","type":"uint256","internalType":"uint256"},{"name":"timeout","type":"uint32","internalType":"uint32"}]}],"stateMutability":"view"},{"type":"function","name":"getOrderValueTimeout","inputs":[{"name":"sellAsset","type":"address","internalType":"address"},{"name":"buyAsset","type":"address","internalType":"address"},{"name":"seller","type":"address","internalType":"address"},{"name":"price","type":"uint96","internalType":"uint96"}],"outputs":[{"name":"value","type":"uint256","internalType":"uint256"},{"name":"timeout","type":"uint32","internalType":"uint32"}],"stateMutability":"view"},{"type":"function","name":"removeOrder","inputs":[{"name":"sellOrder","type":"tuple","internalType":"struct AcuityDexIntrachain.SellOrder","components":[{"name":"sellAsset","type":"address","internalType":"address"},{"name":"buyAsset","type":"address","internalType":"address"},{"name":"price","type":"uint96","internalType":"uint96"},{"name":"value","type":"uint224","internalType":"uint224"},{"name":"timeout","type":"uint32","internalType":"uint32"},{"name":"prevHint","type":"bytes32[]","internalType":"bytes32[]"}]}],"outputs":[],"stateMutability":"nonpayable"},{"type":"function","name":"removeOrderAndWithdraw","inputs":[{"name":"sellOrder","type":"tuple","internalType":"struct AcuityDexIntrachain.SellOrder","components":[{"name":"sellAsset","type":"address","internalType":"address"},{"name":"buyAsset","type":"address","internalType":"address"},{"name":"price","type":"uint96","internalType":"uint96"},{"name":"value","type":"uint224","internalType":"uint224"},{"name":"timeout","type":"uint32","internalType":"uint32"},{"name":"prevHint","type":"bytes32[]","internalType":"bytes32[]"}]},{"name":"to","type":"address","internalType":"address"}],"outputs":[],"stateMutability":"nonpayable"},{"type":"function","name":"removeOrderValue","inputs":[{"name":"sellOrder","type":"tuple","internalType":"struct AcuityDexIntrachain.SellOrder","components":[{"name":"sellAsset","type":"address","internalType":"address"},{"name":"buyAsset","type":"address","internalType":"address"},{"name":"price","type":"uint96","internalType":"uint96"},{"name":"value","type":"uint224","internalType":"uint224"},{"name":"timeout","type":"uint32","internalType":"uint32"},{"name":"prevHint","type":"bytes32[]","internalType":"bytes32[]"}]}],"outputs":[],"stateMutability":"nonpayable"},{"type":"function","name":"removeOrderValueAndWithdraw","inputs":[{"name":"sellOrder","type":"tuple","internalType":"struct AcuityDexIntrachain.SellOrder","components":[{"name":"sellAsset","type":"address","internalType":"address"},{"name":"buyAsset","type":"address","internalType":"address"},{"name":"price","type":"uint96","internalType":"uint96"},{"name":"value","type":"uint224","internalType":"uint224"},{"name":"timeout","type":"uint32","internalType":"uint32"},{"name":"prevHint","type":"bytes32[]","internalType":"bytes32[]"}]},{"name":"to","type":"address","internalType":"address"}],"outputs":[],"stateMutability":"nonpayable"},{"type":"function","name":"setOrderPrice","inputs":[{"name":"sellAsset","type":"address","internalType":"address"},{"name":"buyAsset","type":"address","internalType":"address"},{"name":"oldPrice","type":"uint96","internalType":"uint96"},{"name":"newPrice","type":"uint96","internalType":"uint96"}],"outputs":[],"stateMutability":"nonpayable"},{"type":"function","name":"setOrderTimeout","inputs":[{"name":"sellAsset","type":"address","internalType":"address"},{"name":"buyAsset","type":"address","internalType":"address"},{"name":"price","type":"uint96","internalType":"uint96"},{"name":"newTimeout","type":"uint32","internalType":"uint32"}],"outputs":[],"stateMutability":"nonpayable"},{"type":"function","name":"withdraw","inputs":[{"name":"asset","type":"address","internalType":"address"},{"name":"to","type":"address","internalType":"address"},{"name":"value","type":"uint256","internalType":"uint256"}],"outputs":[],"stateMutability":"nonpayable"},{"type":"function","name":"withdrawAll","inputs":[{"name":"asset","type":"address","internalType":"address"},{"name":"to","type":"address","internalType":"address"}],"outputs":[],"stateMutability":"nonpayable"},{"type":"event","name":"Deposit","inputs":[{"name":"asset","type":"address","indexed":false,"internalType":"address"},{"name":"account","type":"address","indexed":false,"internalType":"address"},{"name":"value","type":"uint256","indexed":false,"internalType":"uint256"}],"anonymous":false},{"type":"event","name":"MatchingCompleted","inputs":[{"name":"sellAsset","type":"address","indexed":false,"internalType":"address"},{"name":"buyAsset","type":"address","indexed":false,"internalType":"address"},{"name":"buyer","type":"address","indexed":false,"internalType":"address"},{"name":"sellValue","type":"uint256","indexed":false,"internalType":"uint256"},{"name":"buyValue","type":"uint256","indexed":false,"internalType":"uint256"}],"anonymous":false},{"type":"event","name":"OrderAdded","inputs":[{"name":"sellAsset","type":"address","indexed":false,"internalType":"address"},{"name":"buyAsset","type":"address","indexed":false,"internalType":"address"},{"name":"orderId","type":"bytes32","indexed":false,"internalType":"bytes32"},{"name":"value","type":"uint256","indexed":false,"internalType":"uint256"},{"name":"timeout","type":"uint256","indexed":false,"internalType":"uint256"}],"anonymous":false},{"type":"event","name":"OrderFullMatch","inputs":[{"name":"sellAsset","type":"address","indexed":false,"internalType":"address"},{"name":"buyAsset","type":"address","indexed":false,"internalType":"address"},{"name":"orderId","type":"bytes32","indexed":false,"internalType":"bytes32"},{"name":"value","type":"uint256","indexed":false,"internalType":"uint256"}],"anonymous":false},{"type":"event","name":"OrderPartialMatch","inputs":[{"name":"sellAsset","type":"address","indexed":false,"internalType":"address"},{"name":"buyAsset","type":"address","indexed":false,"internalType":"address"},{"name":"orderId","type":"bytes32","indexed":false,"internalType":"bytes32"},{"name":"value","type":"uint256","indexed":false,"internalType":"uint256"}],"anonymous":false},{"type":"event","name":"OrderRemoved","inputs":[{"name":"sellAsset","type":"address","indexed":false,"internalType":"address"},{"name":"buyAsset","type":"address","indexed":false,"internalType":"address"},{"name":"orderId","type":"bytes32","indexed":false,"internalType":"bytes32"},{"name":"value","type":"uint256","indexed":false,"internalType":"uint256"}],"anonymous":false},{"type":"event","name":"OrderValueAdded","inputs":[{"name":"sellAsset","type":"address","indexed":false,"internalType":"address"},{"name":"buyAsset","type":"address","indexed":false,"internalType":"address"},{"name":"orderId","type":"bytes32","indexed":false,"internalType":"bytes32"},{"name":"value","type":"uint256","indexed":false,"internalType":"uint256"},{"name":"timeout","type":"uint256","indexed":false,"internalType":"uint256"}],"anonymous":false},{"type":"event","name":"OrderValueRemoved","inputs":[{"name":"sellAsset","type":"address","indexed":false,"internalType":"address"},{"name":"buyAsset","type":"address","indexed":false,"internalType":"address"},{"name":"orderId","type":"bytes32","indexed":false,"internalType":"bytes32"},{"name":"value","type":"uint256","indexed":false,"internalType":"uint256"},{"name":"timeout","type":"uint256","indexed":false,"internalType":"uint256"}],"anonymous":false},{"type":"event","name":"Withdrawal","inputs":[{"name":"asset","type":"address","indexed":false,"internalType":"address"},{"name":"account","type":"address","indexed":false,"internalType":"address"},{"name":"to","type":"address","indexed":false,"internalType":"address"},{"name":"value","type":"uint256","indexed":false,"internalType":"uint256"}],"anonymous":false},{"type":"error","name":"AssetsNotDifferent","inputs":[]},{"type":"error","name":"DepositFailed","inputs":[{"name":"asset","type":"address","internalType":"address"},{"name":"from","type":"address","internalType":"address"},{"name":"value","type":"uint256","internalType":"uint256"}]},{"type":"error","name":"InsufficientBalance","inputs":[]},{"type":"error","name":"InvalidAddress","inputs":[]},{"type":"error","name":"InvalidAsset","inputs":[]},{"type":"error","name":"LimitExceeded","inputs":[]},{"type":"error","name":"NoMatch","inputs":[]},{"type":"error","name":"OrderNotFound","inputs":[]},{"type":"error","name":"PriceZero","inputs":[]},{"type":"error","name":"TimeoutExpired","inputs":[]},{"type":"error","name":"ValueNonZero","inputs":[]},{"type":"error","name":"ValueZero","inputs":[]},{"type":"error","name":"WithdrawalFailed","inputs":[{"name":"asset","type":"address","internalType":"address"},{"name":"to","type":"address","internalType":"address"},{"name":"value","type":"uint256","internalType":"uint256"}]}],"bytecode":{"object":"0x60808060405234601557612a9d908161001b8239f35b600080fdfe6080604052600436101561001257600080fd5b60003560e01c80630798486214611232578063079c21a4146110f757806309cae2c81461105a5780630a1f987314610f7c5780631158e39514610eb757806336c6368614610de85780635730f23a14610d5957806390b8108e14610c515780639435298b146109dc57806397feb926146109605780639d0a82ce146108b9578063b1a1bab7146107d3578063b7b43b53146106cc578063c847719c14610489578063c8c283c8146103b9578063c9e012ff146102a1578063d0e30db014610214578063d4fac45d146101c55763d9caed12146100ed57600080fd5b346101c0576100fb3661138f565b906001600160a01b03831633811480156101b7575b6101a6576001600160a01b038216301461019557821561018457600090815260208181526040808320338452918290529091205493908385106101735761015a846101719661146b565b336000908152602092909252604090912055611a97565b005b631e9acf1760e31b60005260046000fd5b630b13e60d60e31b60005260046000fd5b63e6c4247b60e01b60005260046000fd5b636448d6e960e11b60005260046000fd5b50308114610110565b600080fd5b346101c05760403660031901126101c0576101de611287565b6101e661129d565b6001600160a01b03918216600090815260208181526040808320949093168252928352819020549051908152f35b60003660031901126101c0573415610184573360009081527fad3228b676f7d3cd4284a5443f17f1962b36e491b30a40b2405849e597ba5fb56020526040902080546102619034906114b1565b9055604080516000815233602082015234918101919091527f5548c837ab068cf56a2c2479df0882a4922fd203edb7517321831d95078c5f6290606090a1005b6102aa366112fb565b6102b381611457565b6102bf60208301611457565b6001600160a01b039091169033821480156103b0575b6101a6576001600160a01b03169033821480156103a7575b6101a65714610396576001600160601b0361030a60408301611478565b161561038557606081016001600160e01b036103258261148c565b161561018457610337608083016114a0565b63ffffffff42911611156103745761035a8261035561017194611bc1565b611457565b906001600160e01b039061036d9061148c565b16906118ed565b63b48d5fc760e01b60005260046000fd5b637294708f60e11b60005260046000fd5b636ababe3b60e11b60005260046000fd5b503082146102ed565b503082146102d5565b6103c23661135b565b6103cb81611569565b9160208101906103db8282611411565b93906103e78484611411565b60001981019150811161047357610444956001600160a01b039261041092610355929091611447565b166000526000602052604060002060018060a01b03331660005260205261043d60406000209182546114b1565b9055611411565b9190911561045d5761045861017192611457565b6118ed565b634e487b7160e01b600052603260045260246000fd5b634e487b7160e01b600052601160045260246000fd5b346101c05760803660031901126101c0576104a2611287565b6104aa61129d565b906104b3611345565b906104bc61132f565b6001600160a01b039091169233841480156106c3575b6101a6576001600160a01b03169233841480156106ba575b6101a657838114610396576001600160601b03831615610385576001600160601b0382169384156103855760406105509161056c93600052600160205281600020600091825260205220936001600160601b03166001600160601b03193360601b161790565b916001600160601b03166001600160601b03193360601b161790565b928160005282602052604060002054156106a9576000908180528360205260016040832001545b8381036106905750600080805284602052600160408220015491825b61065e575b508281148015610655575b1561061c5750506000528160205282600160406000200155806000528160205260016040600020015483600052826020526001604060002001555b6000908152602091909152604080822082815560010182905591815290812055005b600084815260208690526040808220600190810154958352818320810195909555918152818120840187905586815220909101556105fa565b508381146105bf565b91906001600160601b03821683106106895750806000528460205260016040600020015491826105af565b90916105b4565b8092509160005283602052600160406000200154610593565b63d36d896560e01b60005260046000fd5b503084146104ea565b503084146104d2565b346101c0576106da366112fb565b6106e381611457565b6106ef60208301611457565b6001600160a01b039091169033821480156107ca575b6101a6576001600160a01b03169033821480156107c1575b6101a65714610396576001600160601b0361073a60408301611478565b1615610385576001600160e01b036107546060830161148c565b161561018457610766608082016114a0565b63ffffffff42911611156103745761077d81612185565b906001600160a01b039061079090611457565b166000526000602052604060002060018060a01b0333166000526020526107bd60406000209182546114b1565b9055005b5030821461071d565b50308214610705565b346101c0576107e1366113c9565b906107eb81611457565b6107f760208301611457565b6001600160a01b039091169033821480156108b0575b6101a6576001600160a01b03169033821480156108a7575b6101a65714610396576001600160601b0361084260408301611478565b1615610385576001600160e01b0361085c6060830161148c565b16156101845761086e608082016114a0565b63ffffffff4291161115610374576001600160a01b038216301461019557610171916108a261089c83612185565b92611457565b611a97565b50308214610825565b5030821461080d565b346101c0576108c7366113c9565b906108d181611457565b6108dd60208301611457565b6001600160a01b03909116903382148015610957575b6101a6576001600160a01b031690338214801561094e575b6101a65714610396576001600160601b0361092860408301611478565b1615610385576001600160a01b038216301461019557610171916108a261089c83611eb6565b5030821461090b565b503082146108f3565b346101c05760403660031901126101c057610979611287565b6001600160a01b038116906024359033831480156109d3575b6101a657811561018457610171926000526000602052604060002060018060a01b03331660005260205260406000206109cc8382546114b1565b9055612083565b50308314610992565b346101c0576109ea3661138f565b916001600160a01b0316903382148015610c48575b6101a6576001600160a01b03163381148015610c3f575b6101a65780821461039657604091600052600160205281600020600091825260205220906000808052826020526001604082200154918015600014610bfd575090805b610bdc57505b610a688161153d565b91610a76604051938461151b565b818352601f19610a858361153d565b0160005b818110610ba957505060008052806020526001604060002001546000905b838210610b22578460405180916020820160208352815180915260206040840192019060005b818110610adb575050500390f35b919350916020608060019263ffffffff60608851868060a01b0381511684528581015186850152604081015160408501520151166060820152019401910191849392610acd565b8060601c6001600160601b03821682600052846020526040600020546001600160601b0363ffffffff8260201c92169260405194610b5f866114cd565b6001600160a01b0316855216602084015260408301526060820152610b848387611555565b52610b8f8286611555565b506000528160205260018060406000200154910190610aa7565b602090604051610bb8816114cd565b60008152600083820152600060408201526000606082015282828801015201610a89565b90610be6906114be565b906000528160205260016040600020015480610a59565b91905b81151580610c36575b15610c2e57610c17906114be565b906000528260205260016040600020015490610c00565b915050610a5f565b50828110610c09565b50308114610a16565b503082146109ff565b346101c05760803660031901126101c057610c6a611287565b610c7261129d565b610c7a611345565b906064359263ffffffff841684036101c0576001600160a01b0316903382148015610d50575b6101a6576001600160a01b0316903382148015610d47575b6101a657818114610396576001600160601b03831615610385576000526001602052604060002090600052602052610d0a6040600020916001600160601b03166001600160601b03193360601b161790565b9182600052816020526040600020549063ffffffff8260201c92505081156106a957610d3591612054565b91600052602052604060002055600080f35b50308214610cb8565b50308214610ca0565b346101c057610d67366112fb565b610d7081611457565b610d7c60208301611457565b6001600160a01b03909116903382148015610ddf575b6101a6576001600160a01b0316903382148015610dd6575b6101a65714610396576001600160601b03610dc760408301611478565b16156103855761077d81611eb6565b50308214610daa565b50308214610d92565b346101c057610df6366112b3565b6001600160a01b038116301461019557610e0f82611569565b6020849392930190610e218286611411565b1561045d576001600160a01b0390610e3890611457565b166000526000602052604060002060018060a01b0333166000528060205281604060002054106101735760018060a01b033316600052602052610e81604060002091825461146b565b9055610e98610e908286611411565b929095611411565b6000198101959150851161047357610171946108a29261035592611447565b346101c057610ec53661135b565b610ece81611569565b60208392930190610edf8284611411565b1561045d576001600160a01b0390610ef690611457565b166000526000602052604060002060018060a01b0333166000528060205281604060002054106101735760018060a01b033316600052602052610f3f604060002091825461146b565b9055610f56610f4e8284611411565b929093611411565b60001981019291508211610473576001600160a01b039261079092610355929091611447565b346101c05760803660031901126101c057610f95611287565b610f9d61129d565b604435906001600160a01b03821682036101c057610fb961132f565b926001600160a01b0316903382148015611051575b6101a6576001600160a01b0316903382148015611048575b6101a6578181146103965760005260016020526040600020906000526020526001600160601b0360406000209216906001600160601b03199060601b16176000526020526040806000205463ffffffff8160201c911682519182526020820152f35b50308214610fe6565b50308214610fce565b346101c05760403660031901126101c057611073611287565b61107b61129d565b906001600160a01b03811633811480156110ee575b6101a6576001600160a01b038316301461019557600052600060205260406000209160018060a01b03331660005282602052604060002054918215610184576101719360018060a01b03331660005260205260006040812055611a97565b50308114611090565b346101c057611105366112fb565b61110e81611457565b61111a60208301611457565b6001600160a01b03909116903382148015611229575b6101a6576001600160a01b0316903382148015611220575b6101a65714610396576001600160601b0361116560408301611478565b16156103855760608101906001600160e01b036111818361148c565b161561018457611193608082016114a0565b63ffffffff4291161115610374576001600160a01b036111b282611457565b16600090815260208181526040808320338452918290529091205490926001600160e01b036111e08261148c565b168210610173576111f361120c93611bc1565b6001600160e01b03906112059061148c565b169061146b565b336000908152602092909252604090912055005b50308214611148565b50308214611130565b61123b366112b3565b6001600160a01b03811630146101955761125482611569565b60208493929301906112668286611411565b9190911561045d5761045861127a92611457565b610e98610e908286611411565b600435906001600160a01b03821682036101c057565b602435906001600160a01b03821682036101c057565b60406003198201126101c0576004359067ffffffffffffffff82116101c05760809082900360031901126101c057600401906024356001600160a01b03811681036101c05790565b60206003198201126101c0576004359067ffffffffffffffff82116101c05760c09082900360031901126101c05760040190565b606435906001600160601b03821682036101c057565b604435906001600160601b03821682036101c057565b60206003198201126101c0576004359067ffffffffffffffff82116101c05760809082900360031901126101c05760040190565b60609060031901126101c0576004356001600160a01b03811681036101c057906024356001600160a01b03811681036101c0579060443590565b60406003198201126101c0576004359067ffffffffffffffff82116101c05760c09082900360031901126101c057600401906024356001600160a01b03811681036101c05790565b903590601e19813603018212156101c0570180359067ffffffffffffffff82116101c057602001918160051b360383136101c057565b919081101561045d5760051b0190565b356001600160a01b03811681036101c05790565b9190820391821161047357565b356001600160601b03811681036101c05790565b356001600160e01b03811681036101c05790565b3563ffffffff811681036101c05790565b9190820180921161047357565b60001981146104735760010190565b6080810190811067ffffffffffffffff8211176114e957604052565b634e487b7160e01b600052604160045260246000fd5b6060810190811067ffffffffffffffff8211176114e957604052565b90601f8019910116810190811067ffffffffffffffff8211176114e957604052565b67ffffffffffffffff81116114e95760051b60200190565b805182101561045d5760209160051b010190565b8035916000918260028510156101c0576000946117985750604081016001600160e01b036115968261148c565b1660208301906115a68285611411565b60001981019150811161175e579190825b6116c957506001600160e01b0391506115d490506060840161148c565b1684116116ba576001600160e01b03906115ed9061148c565b16935b602082016115fe8184611411565b6116088386611411565b600019810193915083116116a65761162e93926116289261035592611447565b93611411565b9190911561169257507f1bbe513b657321bffc40b171622b78b23c408a1fdb29b51c8919b34c3bbfff0c9161166460a092611457565b60405191600180851b03168252600180841b03166020820152336040820152856060820152846080820152a1565b634e487b7160e01b81526032600452602490fd5b634e487b7160e01b85526011600452602485fd5b631930e3c960e11b8552600485fd5b9091956116e3610355886116dd8689611411565b90611447565b906116ee8487611411565b6000198a01918a831161178457916103559161170993611447565b60405192611716846114ff565b6001600160a01b0390811684521660208301526001600160e01b038316604083015260018803611772575061174a906126c8565b955b801561175e57600019019190826115b7565b634e487b7160e01b88526011600452602488fd5b96915061177e906126c8565b9061174c565b634e487b7160e01b8c52601160045260248cfd5b91925060608101906001600160e01b036117b18361148c565b169285905b60208301906117c58285611411565b90508310156118a0576117d88285611411565b600185019182861161188c5761183c926117f59261035592611447565b92611807610355866116dd848a611411565b60405194611814866114ff565b6001600160a01b0390811686521660208501526001600160e01b038816604085015285611411565b600119810191508111611878578303611864575061185b60019161233b565b915b01906117b6565b91945061187260019161233b565b9461185d565b634e487b7160e01b89526011600452602489fd5b634e487b7160e01b8b52601160045260248bfd5b96959450919291506001600160e01b0390506118be6040840161148c565b1685106118de576001600160e01b03906118d79061148c565b16926115f0565b631930e3c960e11b8452600484fd5b6001600160a01b038116611a1d57503481116101c057604080516000815233602082015234918101919091527f5548c837ab068cf56a2c2479df0882a4922fd203edb7517321831d95078c5f6290606090a13481106119495750565b611953903461146b565b33903315611a15575b600080808084865af161196d611a3f565b8180611a0b575b6119f1575b50156119c95760408051600081523360208201526001600160a01b039093169083015260608201527f342e7ff505a8a0364cd0dc2ff195c315e43bce86b204846ecd36913e117b109e90608090a1565b633b02b5c360e01b600090815260048190526001600160a01b03909216602452604452606490fd5b611a05915060208082518301019101611a7f565b38611979565b5080511515611974565b33915061195c565b9034611a2e57611a2c91612083565b565b630620ae2560e51b60005260046000fd5b3d15611a7a573d9067ffffffffffffffff82116114e95760405191611a6e601f8201601f19166020018461151b565b82523d6000602084013e565b606090565b908160209103126101c0575180151581036101c05790565b919291906001600160a01b03811615611bba575b6001600160a01b0382169182611b6f5750600080808087855af1611acd611a3f565b8180611b65575b611b4b575b5015611b2757907f342e7ff505a8a0364cd0dc2ff195c315e43bce86b204846ecd36913e117b109e929360809260405192835233602084015260018060a01b031660408301526060820152a1565b9150633b02b5c360e01b60005260045260018060a01b031660245260445260646000fd5b611b5f915060208082518301019101611a7f565b38611ad9565b5080511515611ad4565b6000809160405182602082019163a9059cbb60e01b835260018060a01b038716602482015289604482015260448152611ba960648261151b565b51925af1611bb5611a3f565b611acd565b5033611aab565b906001600160a01b03611bd383611457565b16600052600160205260406000209060406020840192611bf284611457565b6001600160a01b0316600090815260209190915220926040810192611c34611c1985611478565b6001600160601b03166001600160601b03193360601b161790565b60008181526020878152604090912054901c80611e3257506060830192611c5a8461148c565b90611c726080820192611c6c846114a0565b90612054565b836000528860205260406000205560009660005b60a08301611c948185611411565b9050821015611e2457816116dd611cab9286611411565b356001600160601b038116816000528b60205260406000205415159081611e05575b50611ce15750611cdc906114be565b611c86565b919293949596979850505b806000528860205260016040600020015491825b611dbf575b50611d69611d63611dba969594611d75947fe52919f88ac393175c2f675c7827f6336d5c7dfbd5be018d7621ed98238e015e9b9c611d6f95600052806020528860016040600020015588600052602052600160406000200155611457565b96611457565b9661148c565b916114a0565b604080516001600160a01b039687168152969095166020870152938501919091526001600160e01b0316606084015263ffffffff9091166080830152819060a0820190565b0390a1565b91906001600160601b0382166001600160601b0380611ddd86611478565b16911611611dfe575080600052886020526001604060002001549182611d00565b9091611d05565b90506001600160601b0380611e1986611478565b169116111538611ccd565b505090919293949596611cec565b939592945060608501939192916001600160e01b03611e508661148c565b16016001600160e01b03811161047357611d75611d6f611d69611d6389611dba97611ea360807f125c8eb750c3abc95d18709e208091e99b72509a89374dbce131e6d94e87e72e9d0197611c6c896114a0565b9088600052602052604060002055611457565b906001600160a01b03611ec883611457565b16600052600160205260406000209160406020820193611ee785611457565b6001600160a01b031660009081526020919091522092611f0c611c1960408401611478565b9283600052846020526040600020549163ffffffff8360201c9350508280156106a957600095865b60a08701611f428189611411565b905082101561204757816116dd611f59928a611411565b358060005289602052604060002054611f7b5750611f76906114be565b611f34565b9192939495969750505b5b80600052876020528160016040600020015414611fb25760005286602052600160406000200154611f86565b61201b608095977f1c38fe811a22b4d510b553387a9ddc4b89b4735ae104fae848473f037b26fa1b979961202193856000528160205260016040600020015490600052816020526001604060002001558460005260205260006001604082208281550155611457565b93611457565b604080516001600160a01b039586168152919094166020820152928301526060820152a1565b5050909192939495611f85565b9063ffffffff811615612078575b63ffffffff169063ffffffff199060201b161790565b5063ffffffff612062565b6040516323b872dd60e01b60208201908152336024830152306044830152606480830185905282526000918291906120bc60848261151b565b519082855af16120ca611a3f565b8180612162575b612148575b501561212557604080516001600160a01b0390921682523360208301528101919091527f5548c837ab068cf56a2c2479df0882a4922fd203edb7517321831d95078c5f62908060608101611dba565b63603bb82760e01b60005260018060a01b03166004523360245260445260646000fd5b61215c915060208082518301019101611a7f565b386120d6565b50805115156120d1565b6001600160e01b03918216908216039190821161047357565b90612195611c1960408401611478565b6001600160a01b036121a684611457565b16600052600160205260406000209060208401916121c383611457565b6001600160a01b031660009081526020918252604080822084835280845291205490911c9081156106a9576060860191806001600160e01b036122058561148c565b161061221d5750505050509061221a90611eb6565b90565b60a0936122a86122a261229c8663ffffffff96612277608061226b8f996122657fe48bebd400dc5e775bf4648cb9f9d2a1117430eedf72f2037ef95d369e7c5f9b9f9d61148c565b9061216c565b980197611c6c896114a0565b908660005260205260406000205561229560018060e01b039161148c565b169a611457565b95611457565b926114a0565b9160405194600180881b03168552600180871b031660208501526040840152866060840152166080820152a1565b8181029291811591840414171561047357565b81156122f3570490565b634e487b7160e01b600052601260045260246000fd5b6001600160a01b0391821681529116602082015260408101919091526001600160e01b03909116606082015260800190565b80516000929190612354906001600160a01b03166129c3565b81516001600160a01b03908116600090815260016020818152604080842082880180518716865290835281852088518716865285845282862082519097168652828620868052938190529482902090930154908701519096939587956001600160e01b0390921694919392855b6123e8575b50505050505082036123d6575050565b60008052602052600160406000200155565b90919293949780156126b757600081815260208981526040909120549081901c90606083901c9063ffffffff166001600160601b0384164282116124bd5750508a929160407f1c38fe811a22b4d510b553387a9ddc4b89b4735ae104fae848473f037b26fa1b9260009060018060a01b031681528a6020522061246c8282546114b1565b9055865188516040519283926124919287916001600160a01b03918216911685612309565b0390a15b60009081526020899052604081206001810180549183905591909155989594939291906123c1565b90818d9f929d9e9d886124d66124db92889799986122d6565b6122e9565b9e8f11612576575050908c9d6124f5829d9e9d85946114b1565b9e6124ff9161146b565b6001600160a01b0390941660009081526020869052604090208054949c8d9561252891906114b1565b90558651885160405193849361254d9390926001600160a01b03908116911685612309565b037fe08b2f960dfc1a42d598e0848383a02328253555c05454ad641c0372ed9cc8f291a1612495565b949e9c9d50929b92936001600160e01b039061259288866122d6565b9061259c916122e9565b16926125a98480936114b1565b6001600160a01b03909f166000908152602087905260409020805490916125cf916114b1565b90556125da9161216c565b916001600160e01b0383166126405750508351855160405160009b8c9490937fe08b2f960dfc1a42d598e0848383a02328253555c05454ad641c0372ed9cc8f293839261263892909187916001600160a01b03918216911685612309565b0390a1612495565b8a9897507f583d032c9223c5feab4dba24a0f2578a056440d262cf0df4ce13fd0a59decab19694506126a99350612678919592612054565b876000528860205260406000205560018060a01b039051169160018060a01b03905116928660405194859485612309565b0390a19038808080806123c6565b632d011ca760e01b60005260046000fd5b8051600091906126e0906001600160a01b03166129c3565b81516001600160a01b039081166000908152600160208181526040808420828801805187168652908352818520885187168652858452828620825190971686528286208680529381905294829020909301549087018051909995989497959693959491936001600160e01b0390911690845b6001600160e01b03831680156129af5781156126b7578160601c6001600160601b0380841616836000528c6020526040600020549263ffffffff8460201c94169042821115600014612832575050509060407f1c38fe811a22b4d510b553387a9ddc4b89b4735ae104fae848473f037b26fa1b928e9f9e60009160018060a01b03168252602052206127e58282546114b1565b905588518a5160405192839261280a9287916001600160a01b03918216911685612309565b0390a15b600090815260208a9052604081206001810180549183905591909155999a99612752565b969792968481106128d4575050906128a79d9e9d604061288c8561288661287f8a6124d684997fe08b2f960dfc1a42d598e0848383a02328253555c05454ad641c0372ed9cc8f29b6122d6565b80966114b1565b9a61216c565b9760009060018060a01b031681528a602052209182546114b1565b905588518a516040519283926128cc9287916001600160a01b03918216911685612309565b0390a161280e565b989f98859e9d9f50859c9894959a9b97926128f1919792976122d6565b906128fb916122e9565b9182612906916114b1565b9e600091600160a01b60019003168252602052604090209081549061292a916114b1565b90556129359161216c565b9061293f91612054565b60008581526020899052604090819020919091559051915192519051938493612981936001600160e01b03909316926001600160a01b03918216911685612309565b037f583d032c9223c5feab4dba24a0f2578a056440d262cf0df4ce13fd0a59decab191a15b036123d6575050565b5098979950505097505090508391506129a6565b6001600160a01b0316806129de5750670de0b6b3a764000090565b60206004916040519283809263313ce56760e01b82525afa908115612a5b57600091612a17575b5060ff16604d811161047357600a0a90565b6020813d602011612a53575b81612a306020938361151b565b81010312612a4f57519060ff82168203612a4c575060ff612a05565b80fd5b5080fd5b3d9150612a23565b6040513d6000823e3d90fdfea26469706673582212203a8b1a44f1c4153b17986bc72c6dd5a8ed5c76d8d30d39ab28efb4ae48695bfa64736f6c634300081c0033","linkReferences":{}},"methodIdentifiers":{"addOrderValue((address,address,uint96,uint224,uint32,bytes32[]))":"079c21a4","addOrderValueWithDeposit((address,address,uint96,uint224,uint32,bytes32[]))":"c9e012ff","buy((uint8,address[],uint224,uint224))":"1158e395","buyAndWithdraw((uint8,address[],uint224,uint224),address)":"36c63686","buyWithDeposit((uint8,address[],uint224,uint224))":"c8c283c8","buyWithDepositAndWithdraw((uint8,address[],uint224,uint224),address)":"07984862","deposit()":"d0e30db0","depositERC20(address,uint256)":"97feb926","getBalance(address,address)":"d4fac45d","getOrderBook(address,address,uint256)":"9435298b","getOrderValueTimeout(address,address,address,uint96)":"0a1f9873","removeOrder((address,address,uint96,uint224,uint32,bytes32[]))":"5730f23a","removeOrderAndWithdraw((address,address,uint96,uint224,uint32,bytes32[]),address)":"9d0a82ce","removeOrderValue((address,address,uint96,uint224,uint32,bytes32[]))":"b7b43b53","removeOrderValueAndWithdraw((address,address,uint96,uint224,uint32,bytes32[]),address)":"b1a1bab7","setOrderPrice(address,address,uint96,uint96)":"c847719c","setOrderTimeout(address,address,uint96,uint32)":"90b8108e","withdraw(address,address,uint256)":"d9caed12","withdrawAll(address,address)":"09cae2c8"},"id":23}